{
  "contractName": "Test2",
  "abi": [
    {
      "inputs": [
        {
          "internalType": "address",
          "name": "_tokenAddress",
          "type": "address"
        }
      ],
      "stateMutability": "nonpayable",
      "type": "constructor"
    },
    {
      "anonymous": false,
      "inputs": [
        {
          "indexed": false,
          "internalType": "uint256",
          "name": "OrderID",
          "type": "uint256"
        },
        {
          "indexed": false,
          "internalType": "uint256",
          "name": "ClaimTime",
          "type": "uint256"
        }
      ],
      "name": "OrderClaimed",
      "type": "event"
    },
    {
      "anonymous": false,
      "inputs": [
        {
          "indexed": false,
          "internalType": "uint256",
          "name": "OrderID",
          "type": "uint256"
        },
        {
          "indexed": false,
          "internalType": "uint256",
          "name": "BuyTime",
          "type": "uint256"
        }
      ],
      "name": "OrderPlaced",
      "type": "event"
    },
    {
      "inputs": [
        {
          "internalType": "uint256",
          "name": "",
          "type": "uint256"
        }
      ],
      "name": "orderBook",
      "outputs": [
        {
          "internalType": "address",
          "name": "Buyer",
          "type": "address"
        },
        {
          "internalType": "uint256",
          "name": "Amount",
          "type": "uint256"
        },
        {
          "internalType": "bool",
          "name": "isClaimed",
          "type": "bool"
        },
        {
          "internalType": "uint256",
          "name": "claimTime",
          "type": "uint256"
        }
      ],
      "stateMutability": "view",
      "type": "function"
    },
    {
      "inputs": [
        {
          "internalType": "uint256",
          "name": "",
          "type": "uint256"
        }
      ],
      "name": "user",
      "outputs": [
        {
          "internalType": "address payable",
          "name": "",
          "type": "address"
        }
      ],
      "stateMutability": "view",
      "type": "function"
    },
    {
      "stateMutability": "payable",
      "type": "receive"
    },
    {
      "inputs": [
        {
          "internalType": "uint256",
          "name": "_amount",
          "type": "uint256"
        }
      ],
      "name": "buyTokens",
      "outputs": [],
      "stateMutability": "payable",
      "type": "function"
    },
    {
      "inputs": [
        {
          "internalType": "uint256",
          "name": "_orderId",
          "type": "uint256"
        }
      ],
      "name": "claim",
      "outputs": [],
      "stateMutability": "nonpayable",
      "type": "function"
    },
    {
      "inputs": [
        {
          "internalType": "uint256",
          "name": "_orderId",
          "type": "uint256"
        }
      ],
      "name": "isClaimable",
      "outputs": [
        {
          "internalType": "bool",
          "name": "",
          "type": "bool"
        }
      ],
      "stateMutability": "view",
      "type": "function"
    },
    {
      "inputs": [
        {
          "internalType": "uint256",
          "name": "_orderId",
          "type": "uint256"
        }
      ],
      "name": "isClaimed",
      "outputs": [
        {
          "internalType": "bool",
          "name": "",
          "type": "bool"
        }
      ],
      "stateMutability": "view",
      "type": "function"
    },
    {
      "inputs": [
        {
          "internalType": "address",
          "name": "_user",
          "type": "address"
        },
        {
          "internalType": "uint256",
          "name": "_orderId",
          "type": "uint256"
        }
      ],
      "name": "isClaimer",
      "outputs": [
        {
          "internalType": "bool",
          "name": "",
          "type": "bool"
        }
      ],
      "stateMutability": "view",
      "type": "function"
    },
    {
      "inputs": [
        {
          "internalType": "address",
          "name": "_user",
          "type": "address"
        }
      ],
      "name": "getUserData",
      "outputs": [
        {
          "components": [
            {
              "internalType": "address",
              "name": "Buyer",
              "type": "address"
            },
            {
              "internalType": "uint256",
              "name": "Amount",
              "type": "uint256"
            },
            {
              "internalType": "bool",
              "name": "isClaimed",
              "type": "bool"
            },
            {
              "internalType": "uint256",
              "name": "claimTime",
              "type": "uint256"
            }
          ],
          "internalType": "struct Test2.Order[]",
          "name": "",
          "type": "tuple[]"
        }
      ],
      "stateMutability": "view",
      "type": "function"
    },
    {
      "inputs": [],
      "name": "value",
      "outputs": [
        {
          "internalType": "uint256",
          "name": "",
          "type": "uint256"
        }
      ],
      "stateMutability": "payable",
      "type": "function"
    },
    {
      "inputs": [],
      "name": "ViewToken",
      "outputs": [
        {
          "internalType": "uint256",
          "name": "",
          "type": "uint256"
        }
      ],
      "stateMutability": "view",
      "type": "function"
    }
  ],
  "bytecode": "0x608060405230600160006101000a81548173ffffffffffffffffffffffffffffffffffffffff021916908373ffffffffffffffffffffffffffffffffffffffff160217905550600160055560016006553480156200005c57600080fd5b506040516200165138038062001651833981810160405281019062000082919062000133565b806000806101000a81548173ffffffffffffffffffffffffffffffffffffffff021916908373ffffffffffffffffffffffffffffffffffffffff1602179055505062000165565b600080fd5b600073ffffffffffffffffffffffffffffffffffffffff82169050919050565b6000620000fb82620000ce565b9050919050565b6200010d81620000ee565b81146200011957600080fd5b50565b6000815190506200012d8162000102565b92915050565b6000602082840312156200014c576200014b620000c9565b5b60006200015c848285016200011c565b91505092915050565b6114dc80620001756000396000f3fe6080604052600436106100955760003560e01c80638a3eb3c4116100595780638a3eb3c4146101f55780639e34070f14610232578063a20b6e341461026f578063cd65bb67146102af578063ffc9896b146102da57610113565b80633610724e14610118578063379607f5146101345780633fa4f2451461015d578063553275be1461017b57806389610a09146101b857610113565b3661011357670de0b6b3a76400003410156100af57600080fd5b6002339080600181540180825580915050600190039060005260206000200160009091909190916101000a81548173ffffffffffffffffffffffffffffffffffffffff021916908373ffffffffffffffffffffffffffffffffffffffff1602179055005b600080fd5b610132600480360381019061012d9190610cc3565b610317565b005b34801561014057600080fd5b5061015b60048036038101906101569190610cc3565b6106e4565b005b6101656108e4565b6040516101729190610cff565b60405180910390f35b34801561018757600080fd5b506101a2600480360381019061019d9190610cc3565b6108ff565b6040516101af9190610d5b565b60405180910390f35b3480156101c457600080fd5b506101df60048036038101906101da9190610cc3565b61093e565b6040516101ec9190610d91565b60405180910390f35b34801561020157600080fd5b5061021c60048036038101906102179190610dea565b610971565b6040516102299190610d91565b60405180910390f35b34801561023e57600080fd5b5061025960048036038101906102549190610cc3565b6109f0565b6040516102669190610d91565b60405180910390f35b34801561027b57600080fd5b5061029660048036038101906102919190610cc3565b610a2e565b6040516102a69493929190610e39565b60405180910390f35b3480156102bb57600080fd5b506102c4610a8b565b6040516102d19190610cff565b60405180910390f35b3480156102e657600080fd5b5061030160048036038101906102fc9190610e7e565b610b4f565b60405161030e9190610fdc565b60405180910390f35b61032c60055482610c7290919063ffffffff16565b6064670de0b6b3a764000034610342919061105c565b61034c919061108d565b1461038c576040517f08c379a00000000000000000000000000000000000000000000000000000000081526004016103839061112c565b60405180910390fd5b8060008054906101000a900473ffffffffffffffffffffffffffffffffffffffff1673ffffffffffffffffffffffffffffffffffffffff166370a08231600160009054906101000a900473ffffffffffffffffffffffffffffffffffffffff166040518263ffffffff1660e01b8152600401610408919061114c565b602060405180830381865afa158015610425573d6000803e3d6000fd5b505050506040513d601f19601f82011682018060405250810190610449919061117c565b101561048a576040517f08c379a0000000000000000000000000000000000000000000000000000000008152600401610481906111f5565b60405180910390fd5b60405180608001604052803373ffffffffffffffffffffffffffffffffffffffff168152602001828152602001600015158152602001603c426104cd9190611215565b81525060036000600654815260200190815260200160002060008201518160000160006101000a81548173ffffffffffffffffffffffffffffffffffffffff021916908373ffffffffffffffffffffffffffffffffffffffff1602179055506020820151816001015560408201518160020160006101000a81548160ff02191690831515021790555060608201518160030155905050600460003373ffffffffffffffffffffffffffffffffffffffff1673ffffffffffffffffffffffffffffffffffffffff16815260200190815260200160002060405180608001604052803373ffffffffffffffffffffffffffffffffffffffff168152602001838152602001600015158152602001603c426105e59190611215565b815250908060018154018082558091505060019003906000526020600020906004020160009091909190915060008201518160000160006101000a81548173ffffffffffffffffffffffffffffffffffffffff021916908373ffffffffffffffffffffffffffffffffffffffff1602179055506020820151816001015560408201518160020160006101000a81548160ff0219169083151502179055506060820151816003015550507fd2c5bfb6bce70df9ca34993c14f0558fa1ee01713c7cf98de5c90dd033cdb85e600654426040516106c1929190611249565b60405180910390a1600660008154809291906106dc90611272565b919050555050565b6106ee3382610971565b61072d576040517f08c379a00000000000000000000000000000000000000000000000000000000081526004016107249061132c565b60405180910390fd5b610736816109f0565b610775576040517f08c379a000000000000000000000000000000000000000000000000000000000815260040161076c90611398565b60405180910390fd5b61077e8161093e565b6107bd576040517f08c379a00000000000000000000000000000000000000000000000000000000081526004016107b490611404565b60405180910390fd5b60008054906101000a900473ffffffffffffffffffffffffffffffffffffffff1673ffffffffffffffffffffffffffffffffffffffff1663a9059cbb6003600084815260200190815260200160002060000160009054906101000a900473ffffffffffffffffffffffffffffffffffffffff1660036000858152602001908152602001600020600101546040518363ffffffff1660e01b8152600401610864929190611424565b6020604051808303816000875af1158015610883573d6000803e3d6000fd5b505050506040513d601f19601f820116820180604052508101906108a79190611479565b507f8aa7b75a6f77002436c80c534f692ac27f3ac8510cca43c7c83fafa3ec50635a81426040516108d9929190611249565b60405180910390a150565b6000670de0b6b3a7640000346108fa919061105c565b905090565b6002818154811061090f57600080fd5b906000526020600020016000915054906101000a900473ffffffffffffffffffffffffffffffffffffffff1681565b60004260036000848152602001908152602001600020600301541015610967576001905061096c565b600090505b919050565b60008273ffffffffffffffffffffffffffffffffffffffff166003600084815260200190815260200160002060000160009054906101000a900473ffffffffffffffffffffffffffffffffffffffff1673ffffffffffffffffffffffffffffffffffffffff16036109e557600190506109ea565b600090505b92915050565b60006003600083815260200190815260200160002060020160009054906101000a900460ff1615610a245760009050610a29565b600190505b919050565b60036020528060005260406000206000915090508060000160009054906101000a900473ffffffffffffffffffffffffffffffffffffffff16908060010154908060020160009054906101000a900460ff16908060030154905084565b60008060009054906101000a900473ffffffffffffffffffffffffffffffffffffffff1673ffffffffffffffffffffffffffffffffffffffff166370a08231600160009054906101000a900473ffffffffffffffffffffffffffffffffffffffff166040518263ffffffff1660e01b8152600401610b09919061114c565b602060405180830381865afa158015610b26573d6000803e3d6000fd5b505050506040513d601f19601f82011682018060405250810190610b4a919061117c565b905090565b6060600460008373ffffffffffffffffffffffffffffffffffffffff1673ffffffffffffffffffffffffffffffffffffffff168152602001908152602001600020805480602002602001604051908101604052809291908181526020016000905b82821015610c6757838290600052602060002090600402016040518060800160405290816000820160009054906101000a900473ffffffffffffffffffffffffffffffffffffffff1673ffffffffffffffffffffffffffffffffffffffff1673ffffffffffffffffffffffffffffffffffffffff168152602001600182015481526020016002820160009054906101000a900460ff1615151515815260200160038201548152505081526020019060010190610bb0565b505050509050919050565b60008183610c80919061108d565b905092915050565b600080fd5b6000819050919050565b610ca081610c8d565b8114610cab57600080fd5b50565b600081359050610cbd81610c97565b92915050565b600060208284031215610cd957610cd8610c88565b5b6000610ce784828501610cae565b91505092915050565b610cf981610c8d565b82525050565b6000602082019050610d146000830184610cf0565b92915050565b600073ffffffffffffffffffffffffffffffffffffffff82169050919050565b6000610d4582610d1a565b9050919050565b610d5581610d3a565b82525050565b6000602082019050610d706000830184610d4c565b92915050565b60008115159050919050565b610d8b81610d76565b82525050565b6000602082019050610da66000830184610d82565b92915050565b6000610db782610d1a565b9050919050565b610dc781610dac565b8114610dd257600080fd5b50565b600081359050610de481610dbe565b92915050565b60008060408385031215610e0157610e00610c88565b5b6000610e0f85828601610dd5565b9250506020610e2085828601610cae565b9150509250929050565b610e3381610dac565b82525050565b6000608082019050610e4e6000830187610e2a565b610e5b6020830186610cf0565b610e686040830185610d82565b610e756060830184610cf0565b95945050505050565b600060208284031215610e9457610e93610c88565b5b6000610ea284828501610dd5565b91505092915050565b600081519050919050565b600082825260208201905092915050565b6000819050602082019050919050565b610ee081610dac565b82525050565b610eef81610c8d565b82525050565b610efe81610d76565b82525050565b608082016000820151610f1a6000850182610ed7565b506020820151610f2d6020850182610ee6565b506040820151610f406040850182610ef5565b506060820151610f536060850182610ee6565b50505050565b6000610f658383610f04565b60808301905092915050565b6000602082019050919050565b6000610f8982610eab565b610f938185610eb6565b9350610f9e83610ec7565b8060005b83811015610fcf578151610fb68882610f59565b9750610fc183610f71565b925050600181019050610fa2565b5085935050505092915050565b60006020820190508181036000830152610ff68184610f7e565b905092915050565b7f4e487b7100000000000000000000000000000000000000000000000000000000600052601260045260246000fd5b7f4e487b7100000000000000000000000000000000000000000000000000000000600052601160045260246000fd5b600061106782610c8d565b915061107283610c8d565b92508261108257611081610ffe565b5b828204905092915050565b600061109882610c8d565b91506110a383610c8d565b92508282026110b181610c8d565b915082820484148315176110c8576110c761102d565b5b5092915050565b600082825260208201905092915050565b7f496e73756666696369616e74205061696420616d6f756e740000000000000000600082015250565b60006111166018836110cf565b9150611121826110e0565b602082019050919050565b6000602082019050818103600083015261114581611109565b9050919050565b60006020820190506111616000830184610e2a565b92915050565b60008151905061117681610c97565b92915050565b60006020828403121561119257611191610c88565b5b60006111a084828501611167565b91505092915050565b7f496e73756666696369616e7420546f6b656e7320000000000000000000000000600082015250565b60006111df6014836110cf565b91506111ea826111a9565b602082019050919050565b6000602082019050818103600083015261120e816111d2565b9050919050565b600061122082610c8d565b915061122b83610c8d565b92508282019050808211156112435761124261102d565b5b92915050565b600060408201905061125e6000830185610cf0565b61126b6020830184610cf0565b9392505050565b600061127d82610c8d565b91507fffffffffffffffffffffffffffffffffffffffffffffffffffffffffffffffff82036112af576112ae61102d565b5b600182019050919050565b7f596f7520617265206e6f7420746865204275796572206f662074686973206f7260008201527f6465720000000000000000000000000000000000000000000000000000000000602082015250565b60006113166023836110cf565b9150611321826112ba565b604082019050919050565b6000602082019050818103600083015261134581611309565b9050919050565b7f546f6b656e732061726520616c726561647920436c61696d6564000000000000600082015250565b6000611382601a836110cf565b915061138d8261134c565b602082019050919050565b600060208201905081810360008301526113b181611375565b9050919050565b7f596f752063616e277420436c61696d20546f6b656e73204e6f77000000000000600082015250565b60006113ee601a836110cf565b91506113f9826113b8565b602082019050919050565b6000602082019050818103600083015261141d816113e1565b9050919050565b60006040820190506114396000830185610e2a565b6114466020830184610cf0565b9392505050565b61145681610d76565b811461146157600080fd5b50565b6000815190506114738161144d565b92915050565b60006020828403121561148f5761148e610c88565b5b600061149d84828501611464565b9150509291505056fea2646970667358221220cb4793f01adb9cb7bad3697fa4853c6c25cf90f0ce4ddc651e55905326c7591564736f6c63430008110033",
  "immutableReferences": {},
  "source": "//SPDX-License-Identifier: MIT\n\npragma solidity ^0.8.17;\nimport \"./import_token.sol\";\nimport \"@openzeppelin/contracts/utils/math/SafeMath.sol\";\nimport \"@openzeppelin/contracts/token/ERC20/ERC20.sol\";\n\ncontract Test2 {\n    using SafeMath for uint;\n    import_token Token;\n    address _ad=address(this);\n    address payable[] public user;\n    struct Order{\n        address Buyer;\n        uint Amount;\n        bool isClaimed;\n        uint claimTime; \n    }\n\n    mapping(uint=>Order) public orderBook;\n    mapping(address=>Order[]) userData;\n    uint tokenPrice = 1;\n    uint orderId = 1;\n\n    event OrderPlaced(uint OrderID, uint BuyTime);\n    event OrderClaimed(uint OrderID, uint ClaimTime);\n    constructor(address _tokenAddress) {\n        Token = import_token(_tokenAddress);\n    }\n\n    function buyTokens(uint _amount) public payable {\n        require((msg.value/(1 ether))*100==_amount.mul(tokenPrice),\"Insufficiant Paid amount\");\n        require(Token.balanceOf(_ad)>=_amount,\"Insufficiant Tokens \");\n        orderBook[orderId] = Order(msg.sender,_amount,false,block.timestamp+60);\n        userData[msg.sender].push(Order(msg.sender,_amount,false,block.timestamp+60));\n        emit OrderPlaced(orderId,block.timestamp);\n        orderId++;\n    }\n\n    function claim(uint _orderId) public {\n        require(isClaimer(msg.sender, _orderId),\"You are not the Buyer of this order\");\n        require(isClaimed(_orderId),\"Tokens are already Claimed\");\n        require(isClaimable(_orderId),\"You can't Claim Tokens Now\");\n        Token.transfer(orderBook[_orderId].Buyer,orderBook[_orderId].Amount);\n        emit OrderClaimed(_orderId,block.timestamp);\n    }\n\n    function isClaimable(uint _orderId) public view returns(bool){\n        if(orderBook[_orderId].claimTime <block.timestamp){\n            return true;\n        }\n        return false;\n    }\n\n    function isClaimed(uint _orderId) public view returns(bool) {\n        if(orderBook[_orderId].isClaimed){\n            return false;\n        }\n        return true;\n    }\n\n    function isClaimer(address _user, uint _orderId) public view returns(bool) {\n        if(orderBook[_orderId].Buyer==_user){\n            return true;\n        }\n        return false;\n    } \n    function getUserData(address _user) public view returns(Order[] memory){\n        return userData[_user];\n    }\n\n    receive() external payable\n    {   \n        require(msg.value>=1 ether);\n        user.push(payable(msg.sender));\n    }\n\n    function value() payable public  returns(uint){\n        // ethValue = ethers.utils.formatEther(msg.value);\n        // ethValue=web3.utils.fromWei();\n        // return msg.value/10^18;\n        return msg.value/(1 ether);\n    }\n\n    function ViewToken() public view returns(uint){\n        return Token.balanceOf(_ad);\n    }\n    // function adressA() public view returns(address){\n    //     return address(this);\n    // }\n}\n\n// 0x9C9fF5DE0968dF850905E74bAA6a17FED1Ba042a\n// 0x9C9fF5DE0968dF850905E74bAA6a17FED1Ba042a",
  "sourcePath": "/home/hp/Documents/blockchain/Truffle/Demo/contracts/Buy_token.sol",
  "compiler": {
    "name": "solc",
    "version": "0.8.17+commit.8df45f5f.Emscripten.clang"
  },
  "schemaVersion": "3.4.11",
  "updatedAt": "2023-01-05T05:57:23.032Z",
  "devdoc": {
    "kind": "dev",
    "methods": {},
    "version": 1
  },
  "userdoc": {
    "kind": "user",
    "methods": {},
    "version": 1
  }
}